{
  "contractName": "Calculator",
  "abi": [
    {
      "constant": false,
      "inputs": [
        {
          "name": "num",
          "type": "uint256"
        }
      ],
      "name": "addToNumber",
      "outputs": [],
      "payable": false,
      "stateMutability": "nonpayable",
      "type": "function"
    },
    {
      "constant": false,
      "inputs": [
        {
          "name": "num",
          "type": "uint256"
        }
      ],
      "name": "subtractFromNumber",
      "outputs": [],
      "payable": false,
      "stateMutability": "nonpayable",
      "type": "function"
    },
    {
      "constant": true,
      "inputs": [],
      "name": "getResult",
      "outputs": [
        {
          "name": "",
          "type": "uint256"
        }
      ],
      "payable": false,
      "stateMutability": "view",
      "type": "function"
    },
    {
      "inputs": [
        {
          "name": "initial",
          "type": "uint256"
        }
      ],
      "payable": false,
      "stateMutability": "nonpayable",
      "type": "constructor"
    }
  ],
  "bytecode": "0x6060604052341561000f57600080fd5b60405160208061015183398101604052808051906020019091905050806000819055505061010f806100426000396000f3006060604052600436106053576000357c0100000000000000000000000000000000000000000000000000000000900463ffffffff16806306ccd230146058578063a9401603146078578063de292789146098575b600080fd5b3415606257600080fd5b6076600480803590602001909190505060be565b005b3415608257600080fd5b6096600480803590602001909190505060cc565b005b341560a257600080fd5b60a860da565b6040518082815260200191505060405180910390f35b806000540160008190555050565b806000540360008190555050565b600080549050905600a165627a7a7230582093e9b8d248a81008582b896dc5363e51242bc282bfe9b2e7ad080bdf069842910029",
  "source": "pragma solidity ^0.4.4;\n\n// contract definition\ncontract Calculator {\n\n  // Properties\n  uint result;\n\n  // Contract Constructor\n  function Calculator(uint initial) public {\n    // constructor\n    result = initial;\n  }\n\n  // Contract function with return value definition\n  function getResult() public view returns (uint) {\n    return result;\n  }\n\n  // Contract function without return value definition\n  function addToNumber(uint num) public {\n    result = result + num;\n  }\n\n  function subtractFromNumber(uint num) public {\n    result = result - num;\n  }\n \n  // function multiplyWithNumber(uint num) public {\n    // result = result * num;\n  // }\n\n  // function divideByNumber(uint num) public {\n    // result = result / num;\n  // }\n}\n",
  "sourcePath": "/dapp/contracts/Calculator.sol",
  "compiler": {
    "name": "solc",
    "version": "0.4.18+commit.9cf6e910.Emscripten.clang"
  },
  "schemaVersion": "1.0.1",
  "updatedAt": "2018-01-06T16:03:22.163Z"
}